:100000000C9434000C943E000C943E000C943E0082
:100010000C943E000C943E000C943E000C943E0068
:100020000C943E000C943E000C943E000C943E0058
:100030000C943E000C943E000C943E000C943E0048
:100040000C943E000C943E000C943E000C943E0038
:100050000C943E000C943E000C943E000C943E0028
:100060000C943E000C943E0011241FBECFEFD8E04C
:10007000DEBFCDBF0E945C000C9468000C940000B1
:1000800088E08093C4001092C50088E18093C1008D
:1000900086E08093C2000895E0ECF0E0908195FF47
:1000A000FDCF8093C6000895E0ECF0E080818823C6
:1000B000ECF78091C60008950E944000C0ECD0E0AB
:1000C00088818823ECF70E9454000E944C00F8CFEE
:0400D000F894FFCFD2
:00000001FF
