:100000000C9434000C943E000C943E000C943E0082
:100010000C943E000C943E000C943E000C943E0068
:100020000C943E000C943E000C943E000C943E0058
:100030000C943E000C943E000C943E000C943E0048
:100040000C943E000C943E000C943E000C943E0038
:100050000C943E000C943E000C943E000C943E0028
:100060000C943E000C943E0011241FBECFEFD8E04C
:10007000DEBFCDBF0E947B000C940D010C940000EC
:1000800029B130E0082E02C0359527950A94E2F791
:1000900020FD16C02FEF30E792E021503040904015
:1000A000E1F700C0000029B130E002C03595279586
:1000B0008A95E2F781E090E020FF04C080E0089597
:1000C00080E090E00895AC01209186003091870097
:1000D0003695279536952795ABE7B4E10E94FE004B
:1000E000969587959C01249FC001259F900D349F74
:1000F000900D1124089582E084B9E6E8F0E083E2EF
:1001000094EF9183808320813181369527953695B0
:100110002795ABE7B4E10E94FE00969587959C0178
:10012000220F331F880F991F880F991F880F991F5F
:10013000820F931F909389008093880082E88093B8
:1001400080008CE180938100CAE0D0E00F2EF6E8B9
:10015000EF2EF12CF02D08E810E082E090E00E94F4
:100160004000892BF9F0C436D10509F43FC02A9626
:10017000F701208131813695279536952795ABE794
:10018000B4E10E94FE00969587958C9F90018D9F0B
:10019000300D9C9F300D1124F801318320834A9B40
:1001A000FECFDBCF84E090E00E944000892BA9F2D3
:1001B000CB30D10594F22A97F70120813181369511
:1001C000279536952795ABE7B4E10E94FE009695FA
:1001D00087958C9F90018D9F300D9C9F300D112431
:1001E000F801318320834C9BFECFB7CF84E090E0B1
:1001F0000E944000892B09F4B0CFDDCFA29FB0014F
:10020000B39FC001A39F700D811D1124911DB29F4A
:0E021000700D811D1124911D0895F894FFCFEB
:00000001FF
