:100000000C9434000C9449000C9449000C94490061
:100010000C9449000C9449000C9449000C9449003C
:100020000C9449000C9449000C9449000C947700FE
:100030000C9449000C9449000C9449000C9449001C
:100040000C9449000C9449000C9449000C9449000C
:100050000C9449000C9449000C9449000C944900FC
:100060000C9449000C94490011241FBECFEFD8E036
:10007000DEBFCDBF11E0A0E0B1E0E6E6F1E002C0F6
:1000800005900D92A031B107D9F70E94AB000C94F6
:10009000B1000C94000088E08093C4001092C50069
:1000A0008093C1000895E0ECF0E0908195FFFDCFD2
:1000B0008093C60008950F931F93CF93DF93FC01A5
:1000C0008081882379F08F010F5F1F4FC0ECD0E053
:1000D000988195FFFDCF0E945300F80181918F0117
:1000E0008111F6CFDF91CF911F910F9108951F924B
:1000F0000F920FB60F9211242F933F934F935F935C
:100100006F937F938F939F93AF93BF93EF93FF93DF
:1001100080E091E00E945B001895FF91EF91BF9104
:10012000AF919F918F917F916F915F914F913F918F
:100130002F910F900FBE0F901F90189582E19AE7B4
:10014000909389008093880082E080936F008DE017
:1001500080938100089578940E949E000E944B0035
:06016000FFCFF894FFCF71
:1001660048656C6C6F20576F726C64210D0A000035
:00000001FF
