:100000000C9434000C943E000C943E000C943E0082
:100010000C943E000C943E000C943E000C943E0068
:100020000C943E000C943E000C943E000C943E0058
:100030000C943E000C943E000C943E000C943E0048
:100040000C943E000C943E000C943E000C943E0038
:100050000C943E000C943E000C943E000C943E0028
:100060000C943E000C943E0011241FBECFEFD8E04C
:10007000DEBFCDBF0E947A000C9483000C94000078
:10008000CF93DF93CDB7DEB788EB90E028E4FC0197
:1000900020838CEB90E024E0FC0120830000DF91C2
:1000A000CF910895CF93DF93CDB7DEB78CEB90E07F
:1000B00020EAFC01208300008CEB90E0FC018081B1
:1000C0008823D4F789EB90E0FC018081882F90E0B1
:1000D000887F9927089751F484E290E021E0FC01A1
:1000E000208385E290E021E0FC0120830000DF9185
:1000F000CF910895CF93DF93CDB7DEB70E94400034
:0A0100000E945200FFCFF894FFCFD9
:00000001FF
