:100000000C9434000C9449000C9449000C94490061
:100010000C9449000C9449000C9449000C9449003C
:100020000C9449000C9449000C9449000C9449002C
:100030000C9449000C9449000C9449000C9449001C
:100040000C9449000C9449000C9449000C9449000C
:100050000C9449000C9449000C9449000C944900FC
:100060000C9449000C94490011241FBECFEFD8E036
:10007000DEBFCDBF11E0A0E0B1E0E0E5F1E002C0FD
:1000800005900D92A631B107D9F70E9494000C9407
:10009000A6000C94000088E08093C4001092C50074
:1000A00088E98093C10086E08093C2000895E0EC67
:1000B000F0E0908195FFFDCF8093C6000895CF9327
:1000C000DF93EC018881882331F021960E9457004C
:1000D00089918111FBCFDF91CF91089588E48093BE
:1000E000B80084E08093BC000895ECEBF0E08081E0
:1000F000806A808380818823ECF78091B900887FB3
:10010000883021F480E091E00E945F000895ECEBDC
:10011000F0E080818069808380818823ECF78CE027
:1001200091E00E945F0008950E944B000E946E00C3
:100130000E9475002FEF81EE94E0215080409040A6
:10014000E1F700C000000E948700FFCFF894FFCFC6
:100150005374617274206F6B210D0A0073746F7099
:06016000206F6B0A000095
:00000001FF
