:100000000C9434000C943E000C943E000C943E0082
:100010000C943E000C943E000C943E000C943E0068
:100020000C943E000C943E000C943E000C943E0058
:100030000C943E000C943E000C943E000C943E0048
:100040000C943E000C943E000C943E000C943E0038
:100050000C943E000C943E000C943E000C943E0028
:100060000C943E000C943E0011241FBECFEFD8E04C
:10007000DEBFCDBF0E9445000C946F000C940000C1
:100080008EBD0DB407FEFDCF08958CE185B981E5E5
:100090008CBD15B880E00E94400080E00E944000C6
:1000A00080E00E94400080E00E9440008FEF0E94AC
:1000B000400080E00E94400080E00E9440008FEFFE
:1000C0000E9440008FEF0E9440008FEF0E9440008E
:1000D0008FEF0E9440008FEF0E944000FFCFF89406
:0200E000FFCF50
:00000001FF
