:100000000C9434000C9449000C9449000C94490061
:100010000C9449000C9449000C9449000C9449003C
:100020000C9449000C9449000C9449000C9449002C
:100030000C9449000C9449000C9449000C9449001C
:100040000C9449000C9449000C9449000C9449000C
:100050000C9449000C9449000C9449000C944900FC
:100060000C9449000C94490011241FBECFEFD8E036
:10007000DEBFCDBF11E0A0E0B1E0E0E5F2E002C0FC
:1000800005900D92A231B107D9F70E9406010C9498
:1000900026010C94000088E08093C4001092C500F3
:1000A00088E98093C10086E08093C2000895E0EC67
:1000B000F0E0908195FFFDCF8093C6000895E0ECBD
:1000C000F0E080818823ECF78091C6000895CF92FC
:1000D000DF92EF92FF920F931F93CF93DF93CDB7F1
:1000E000DEB761970FB6F894DEBF0FBECDBFC82E46
:1000F00081E1E0E0F1E0DE01119601900D928A9538
:10010000E1F789818823A9F07E0192E0E90EF11CD4
:1001100000E010E00C2C000CDD08C016D10611F434
:100120000E9457000F5F1F4FF70181917F018111DE
:10013000F4CF61960FB6F894DEBF0FBECDBFDF914E
:10014000CF911F910F91FF90EF90DF90CF90089586
:10015000CF92DF92EF92FF926C01990FEE08FF08A9
:1001600021E1C216D104E104F10410F40E946700F9
:1001700081E1C816D104E104F1042CF1D701C601D4
:10018000FF201CF40F96A11DB11D689413F8B595BE
:10019000A795979587951694D1F70E94A800D70147
:1001A000C6018F709927AA27B078BB2354F4019712
:1001B000A109B109806F9F6FAF6FBF6F0196A11D3D
:1001C000B11D0E946700FF90EF90DF90CF900895DF
:1001D000EAE7F0E0808180648083808186FDFDCF46
:1001E0008091790090E00895ECE7F0E080E480836E
:1001F0008081806280838081807F8083EAE7F0E075
:1002000087E0808380818068808308950E94F40065
:100210000E944B002FEF89EF90E0215080409040EA
:10022000E1F700C000000E94E800EC018A3018F4F9
:1002300080E30E945700CE0199270E94A8008AE01F
:100240000E9457008DE00E945700E4CFF894FFCF42
:1002500030313233343536373839414243444546FC
:0202600000009C
:00000001FF
