:100000000C9434000C943E000C943E000C943E0082
:100010000C943E000C943E000C943E000C943E0068
:100020000C943E000C943E000C943E000C943E0058
:100030000C943E000C943E000C943E000C943E0048
:100040000C943E000C943E000C943E000C943E0038
:100050000C943E000C943E000C943E000C943E0028
:100060000C943E000C943E0011241FBECFEFD8E04C
:10007000DEBFCDBF0E949F000C94B4000C94000022
:1000800088BD67BD4093B40008958095853550F4D0
:10009000982F990F890F982F909598BD17BC809332
:1000A000B40008958A3A58F48555982F990F890F0E
:1000B000982F909518BC87BD9093B40008958A5AE4
:1000C000982F990F890F982F909588BD97BD109202
:1000D000B4000895811102C015B808C0803410F032
:1000E00091E095B9813810F093E095B9813C10F01A
:1000F00097E095B98F3F11F487E185B9089588E6B7
:100100008AB983E084BD85BD94B5906A94BDE0EB67
:10011000F0E080838093B1008081806280830895C5
:10012000ECE7F0E080E48083808180628083EAE70E
:10013000F0E087E0808380818068808308950E945A
:1001400090000E947F0087E184B90AE710E0C9E7C8
:10015000D0E0F80180818064808388810E9445001E
:0C01600088810E946A00F5CFF894FFCF60
:00000001FF
